:020000040800F2
:1000000000000220191C00081D180008251800080F
:100010002D180008351800083D18000800000000E1
:100020000000000000000000000000004172000815
:100030004518000800000000917400082D4E0008CB
:10004000691C0008691C0008691C0008691C00087C
:10005000691C0008691C0008691C0008691C00086C
:10006000691C0008691C0008691C0008691C00085C
:10007000691C0008691C0008691C0008691C00084C
:10008000691C0008691C0008691C0008691C00083C
:10009000691C0008691C0008691C0008691C00082C
:1000A000691C000855180008691C0008691C000834
:1000B000691C0008691C0008691C0008691C00080C
:1000C000691C0008691C0008691C0008691C0008FC
:1000D000691C000869180008691C0008691C0008F0
:1000E000691C0008691C0008691C0008691C0008DC
:1000F000691C0008691C0008691C0008691C0008CC
:10010000691C0008691C0008691C0008691C0008BB
:10011000691C0008691C0008691C0008691C0008AB
:10012000691C0008691C00087D180008691C00088B
:10013000691C0008691C0008691C0008691C00088B
:10014000691C0008691C0008691C0008691C00087B
:10015000691C0008691C000891180008691C000847
:10016000691C0008691C0008691C0008691C00085B
:10017000691C0008691C0008691C000800000000D8
:08018000691C0008691C00085D
:1001900010B5054C237833B9044B13B10448AFF3C1
:1001A00000800123237010BD600B002000000000C0
:1001B000887C010808B5034B1BB103490348AFF322
:1001C000008008BD00000000640B0020887C01084E
:1001D00010F8012B11F8013B012A28BF9A42F7D0F1
:1001E000D01A7047034613F8012B002AFBD1181AC6
:1001F000013870470000000000000000000000000F
:1002000001F0FF01102A2BDB10F0070F08D010F8C7
:10021000013B013A8B422DD010F0070F42B3F6D1CB
:10022000F0B441EA012141EA014122F007047FF0E4
:1002300000070023F0E80256083C85EA010586EA3B
:10024000010685FA47F5A3FA87F586FA47F6A5FA77
:1002500087F68EB9EED1F0BC01F0FF0102F0070283
:1002600032B110F8013B013A83EA010313B1F8D12E
:100270000020704701387047002D06BF354603380F
:10028000073815F0010F07D1013015F4807F02BF48
:10029000013015F4C03F0130F0BC0138704700BF99
:1002A00081F0004102E000BF83F0004330B54FEA27
:1002B00041044FEA430594EA050F08BF90EA020F94
:1002C0001FBF54EA000C55EA020C7FEA645C7FEA27
:1002D000655C00F0E2804FEA5454D4EB5555B8BF4A
:1002E0006D420CDD2C4480EA020281EA030382EABB
:1002F000000083EA010180EA020281EA0303362D4D
:1003000088BF30BD11F0004F4FEA01314FF4801C1F
:100310004CEA113102D0404261EB410113F0004F31
:100320004FEA03334CEA133302D0524263EB4303E8
:1003300094EA050F00F0A780A4F10104D5F1200E86
:100340000DDB02FA0EFC22FA05F2801841F10001E1
:1003500003FA0EF2801843FA05F359410EE0A5F1B5
:1003600020050EF1200E012A03FA0EFC28BF4CF0E6
:10037000020C43FA05F3C01851EBE37101F000459C
:1003800007D54FF0000EDCF1000C7EEB00006EEBA9
:100390000101B1F5801F1BD3B1F5001F0CD3490833
:1003A0005FEA30004FEA3C0C04F101044FEA44528A
:1003B00012F5800F80F09A80BCF1004F08BF5FEA11
:1003C000500C50F1000041EB045141EA050130BDF1
:1003D0005FEA4C0C404141EB0101013C28BFB1F503
:1003E000801FE9D291F0000F04BF01460020B1FA4E
:1003F00081F308BF2033A3F10B03B3F120020CDA21
:100400000C3208DD02F1140CC2F10C0201FA0CF0FE
:1004100021FA02F10CE002F11402D8BFC2F1200C63
:1004200001FA02F120FA0CFCDCBF41EA0C01904019
:10043000E41AA2BF01EB0451294330BD6FEA040462
:100440001F3C1CDA0C340EDC04F11404C4F120024D
:1004500020FA04F001FA02F340EA030021FA04F35F
:1004600045EA030130BDC4F10C04C4F1200220FAB6
:1004700002F001FA04F340EA0300294630BD21FAF4
:1004800004F0294630BD94F0000F83F4801306BFBA
:1004900081F480110134013D4EE77FEA645C18BFAE
:1004A0007FEA655C29D094EA050F08BF90EA020F45
:1004B00005D054EA000C04BF1946104630BD91EA3D
:1004C000030F1EBF0021002030BD5FEA545C05D140
:1004D0004000494128BF41F0004130BD14F580047F
:1004E0003CBF01F5801130BD01F0004545F0FE41F3
:1004F00041F470014FF0000030BD7FEA645C1ABF28
:10050000194610467FEA655C1CBF0B46024650EA5E
:10051000013406BF52EA033591EA030F41F400218A
:1005200030BD00BF90F0000F04BF0021704730B510
:100530004FF4806404F132044FF000054FF00001E5
:1005400050E700BF90F0000F04BF0021704730B5A6
:100550004FF4806404F1320410F0004548BF40427B
:100560004FF000013EE700BF42004FEAE2014FEAD0
:1005700031014FEA02701FBF12F07F4393F07F4FAB
:1005800081F06051704732F07F4208BF704793F0AE
:100590007F4F04BF41F40021704730B54FF46074C1
:1005A00001F0004521F000411CE700BF50EA0102C4
:1005B00008BF704730B54FF000050AE050EA01026D
:1005C00008BF704730B511F0004502D5404261EBDD
:1005D00041014FF4806404F132045FEA915C3FF41E
:1005E000D8AE4FF003025FEADC0C18BF03325FEABB
:1005F000DC0C18BF033202EBDC02C2F1200300FA6C
:1006000003FC20FA02F001FA03FE40EA0E0021FA90
:1006100002F11444BDE600BF70B54FF0FF0C4CF47E
:10062000E06C1CEA11541DBF1CEA135594EA0C0F30
:1006300095EA0C0F00F0DEF82C4481EA030621EA6B
:100640004C5123EA4C5350EA013518BF52EA0335A6
:1006500041F4801143F4801338D0A0FB02CE4FF058
:100660000005E1FB02E506F00042E0FB03E54FF088
:100670000006E1FB03569CF0000F18BF4EF0010E80
:10068000A4F1FF04B6F5007F64F5407404D25FEA7C
:100690004E0E6D4146EB060642EAC62141EA55512F
:1006A0004FEAC52040EA5E504FEACE2EB4F1FD0C71
:1006B00088BFBCF5E06F1ED8BEF1004F08BF5FEAEF
:1006C000500E50F1000041EB045170BD06F00046A1
:1006D00046EA010140EA020081EA0301B4EB5C044E
:1006E000C2BFD4EB0C0541EA045170BD41F4801146
:1006F0004FF0000E013C00F3AB8014F1360FDEBF6B
:10070000002001F0004170BDC4F10004203C35DA46
:100710000C341BDC04F11404C4F1200500FA05F3C9
:1007200020FA04F001FA05F240EA020001F000426A
:1007300021F0004110EBD37021FA04F642EB0601E0
:100740005EEA430E08BF20EAD37070BDC4F10C040A
:10075000C4F1200500FA04F320FA05F001FA04F2CE
:1007600040EA020001F0004110EBD37041F10001BA
:100770005EEA430E08BF20EAD37070BDC4F12005C5
:1007800000FA05F24EEA020E20FA04F301FA05F22D
:1007900043EA020321FA04F001F0004121FA04F2D5
:1007A00020EA020000EBD3705EEA430E08BF20EAA5
:1007B000D37070BD94F0000F0FD101F000464000DF
:1007C00041EB010111F4801F08BF013CF7D041EA61
:1007D000060195F0000F18BF704703F00046520065
:1007E00043EB030313F4801F08BF013DF7D043EA36
:1007F0000603704794EA0C0F0CEA135518BF95EAEC
:100800000C0F0CD050EA410618BF52EA4306D1D172
:1008100081EA030101F000414FF0000070BD50EA91
:10082000410606BF1046194652EA430619D094EA1B
:100830000C0F02D150EA013613D195EA0C0F05D105
:1008400052EA03361CBF104619460AD181EA030159
:1008500001F0004141F0FE4141F470014FF0000011
:1008600070BD41F0FE4141F4780170BD70B54FF0AC
:10087000FF0C4CF4E06C1CEA11541DBF1CEA13552C
:1008800094EA0C0F95EA0C0F00F0A7F8A4EB05040E
:1008900081EA030E52EA03354FEA013100F0888005
:1008A0004FEA03334FF0805545EA131343EA1263CE
:1008B0004FEA022245EA111545EA10654FEA002683
:1008C0000EF000419D4208BF964244F1FD0404F53C
:1008D000407402D25B084FEA3202B61A65EB030598
:1008E0005B084FEA32024FF480104FF4002CB6EB55
:1008F000020E75EB030E22BFB61A754640EA0C00D5
:100900005B084FEA3202B6EB020E75EB030E22BF14
:10091000B61A754640EA5C005B084FEA3202B6EB55
:10092000020E75EB030E22BFB61A754640EA9C0014
:100930005B084FEA3202B6EB020E75EB030E22BFE4
:10094000B61A754640EADC0055EA060E18D04FEAA2
:10095000051545EA16754FEA06164FEAC30343EA42
:1009600052734FEAC2025FEA1C1CC0D111F4801F0F
:100970000BD141EA00014FF000004FF0004CB6E708
:1009800011F4801F04BF01430020B4F1FD0C88BFA7
:10099000BCF5E06F3FF6AFAEB5EB030C04BFB6EBB2
:1009A000020C5FEA500C50F1000041EB045170BDA5
:1009B0000EF0004E4EEA113114EB5C04C2BFD4EBD2
:1009C0000C0541EA045170BD41F480114FF0000E56
:1009D000013C90E645EA060E8DE60CEA135594EAD2
:1009E0000C0F08BF95EA0C0F3FF43BAF94EA0C0FD5
:1009F0000AD150EA01347FF434AF95EA0C0F7FF44A
:100A000025AF104619462CE795EA0C0F06D152EA9D
:100A100003353FF4FDAE1046194622E750EA410681
:100A200018BF52EA43067FF4C5AE50EA41047FF492
:100A30000DAF52EA43057FF4EBAE12E77BB972B912
:100A40000029BEBF00204FF0004106E008BF00288B
:100A50001CBF6FF000414FF0FF3000F0D3B9ADF193
:100A6000080C6DE904CE002909DB002B1ADB00F02D
:100A70004DF8DDF804E0DDE9022304B070474042A0
:100A800061EB4101002B1BDB00F040F8DDF804E0D6
:100A9000DDE9022304B0404261EB4101524263EBC5
:100AA00043037047524263EB430300F02FF8DDF835
:100AB00004E0DDE9022304B0404261EB41017047EC
:100AC000524263EB430300F021F8DDF804E0DDE976
:100AD000022304B0524263EB4303704753B94AB94F
:100AE000002908BF00281CBF4FF0FF314FF0FF3036
:100AF00000F088B9ADF1080C6DE904CE00F006F8FD
:100B0000DDF804E0DDE9022304B070472DE9F04789
:100B1000089D0F4604468C46002B48D18A42164653
:100B200061D9B2FA82F34BB1C3F1200201FA03FC9E
:100B300020FA02F29E4042EA0C0C9C404FEA164E0C
:100B4000B7B2BCFBFEF1220C0EFB11CC42EA0C4208
:100B500001FB07F0904209D9B21801F1FF3C80F087
:100B6000EE80904240F2EB8002393244121AA4B275
:100B7000B2FBFEF00EFB102244EA024400FB07F732
:100B8000A74209D9341900F1FF3280F0DA80A74278
:100B900040F2D7803444023840EA0140E41B00218F
:100BA0001DB1DC400023C5E90043BDE8F0878B425E
:100BB00006D90DB1C5E9000100210846BDE8F0875E
:100BC000B3FA83F1002948D1BB4202D3824200F23A
:100BD0000781841A67EB030201209446002DE4D0BC
:100BE000C5E9004CE1E7002A00F09280B2FA82F3F6
:100BF000002B40F0A8808A1A4FEA164E1FFA86FC96
:100C00000121200CB2FBFEF70EFB172240EA024244
:100C10000CFB07F0904207D9B21807F1FF3802D257
:100C2000904200F2E2804746121AA4B2B2FBFEF0F4
:100C30000EFB102244EA02440CFB00FCA44507D939
:100C4000341900F1FF3202D2A44500F2CB801046E5
:100C5000A4EB0C0440EA0740A2E7C1F120068B4058
:100C600022FA06FC4CEA030C07FA01F420FA06F318
:100C7000F7404FEA1C49234300FA01F81FFA8CFEA3
:100C8000B7FBF9F01C0C09FB107744EA074400FBA2
:100C90000EF7A74202FA01F20AD91CEB040400F194
:100CA000FF3A80F09B80A74240F29880023864446B
:100CB000E41B9FB2B4FBF9F309FB134447EA044475
:100CC00003FB0EFEA64509D91CEB040403F1FF3714
:100CD00080F08280A6457FD9023B644443EA00400D
:100CE000A4EB0E04A0FB02E7BC427346B94663D3F3
:100CF00060D05DB1B8EB030264EB090404FA06F6B8
:100D000022FA01F31E43CC40C5E9006400214CE700
:100D10006208480842EAC1710B0C43EA00438AB2F8
:100D200042EA0342B3FBF6F1E407B4463746B6465F
:100D30001F23B0FBF6F0D21B41EA004161E7614698
:100D400014E7104628E7C3F1200120FA01F29E4083
:100D500027FA01F19F403A434FEA164E1FFA86FCEC
:100D6000B1FBFEF70EFB1710110C41EA004107FB27
:100D70000CF8884504FA03F43AD9711807F1FF30EA
:100D800001D288451FD8A1EB0801B1FBFEF808FB92
:100D90000CF70EFB181192B242EA0142BA422FD26E
:100DA000B21808F1FF31C6D2BA42C4D2A8F102018A
:100DB0003244C0E7F0459CD2BEEB020367EB0C0760
:100DC0000138B94695E7A6EB08084144B81EB1FBC7
:100DD000FEF808FB0CF7DCE73B467FE7504667E789
:100DE0000846FBE63444023832E7023F32441BE750
:100DF000A1EB08013846B1FBFEF808FB0CF7C8E789
:100E0000414698E7704700BF80B582B000AF00232D
:100E10007B60104B1B6B0F4A43F4800313630D4B35
:100E20001B6B03F480037B607B68002205213A2062
:100E300001F016F83A2001F02FF800220521462093
:100E400001F00EF8462001F027F800BF0837BD4634
:100E500080BD00BF0038024080B500AF044A0021C9
:100E6000044804F05CF80346034A136000BF80BDE9
:100E7000287D0108810E00086C0E00200000000093
:100E800080B592B002AF78607F4B01937F4B0093A7
:100E90007F4B804A8049012008F03EFD07F1200386
:100EA000184608F06BFC7D4B3B627D4B7B627D4BB3
:100EB000BB627D4BFB6207F12003184608F06CFC17
:100EC000034683F00103DBB2002B04D04FF47A70A9
:100ED00004F0B7F8FAE707F10C03184608F07AFCBB
:100EE00005E008F0A9FC4FF4FA7004F0AAF807F145
:100EF0000C03002200216D4808F04EFB0346002B36
:100F0000EFD105E008F098FC4FF4FA7004F099F87E
:100F1000664B674A6749684808F088FB0346002B20
:100F2000F0D105E008F088FC4FF4FA7004F089F87D
:100F300009F02CFB0246614B5F49614808F0B2FBA7
:100F40000346002BEED105E008F076FC4FF4FA7072
:100F500004F077F807F008FB02465A4B56495A4806
:100F600008F0A0FB0346002BEED105E008F064FC7E
:100F70004FF4FA7004F065F809F00EFC0246534B8A
:100F80004D49534808F08EFB0346002BEED100F08C
:100F9000ABF8034683F00103DBB2002B04D04FF41F
:100FA0007A7004F04EF8FAE74FF47A7008F086FE93
:100FB00005E008F041FC4FF4FA7004F042F8454BAC
:100FC00000932FA3D3E900233849434808F09EFB40
:100FD0000346002BEDD105E008F02EFC4FF4FA702B
:100FE00004F02FF807F10C03012230493B4808F0C8
:100FF00013F80346002BEFD1394B00221A6005E0AD
:1010000008F01AFC4FF4FA7004F01BF83249334828
:1010100008F072F80346002BF2D103F06BFFF8637F
:1010200003F068FFB863BA6BFB6BD31AB3F57A7F32
:1010300011D3BB6BFB6300222949214807F05CFCFC
:101040000346002B05D1264B1B680133244A13604D
:1010500001E008F0F1FB234A4FF000031F4808F0BD
:1010600061FA78637B6B002B04D07B6B022B01D081
:1010700008F0E2FB0A2003F0E4FFD1E7AFF30080C1
:1010800080F0FA020000000015820008AD8100081F
:101090008D81000861810008CC3E0020997E000807
:1010A000DD7E0008157F0008817F0008AC3D002030
:1010B000AC7C0108B07C0108E03D0020C07C010848
:1010C000E83D0020CC7C01087C0B0020D47C01088A
:1010D000800B002041130008840B0020F03D00200D
:1010E000783E00208096980080B582B000AF4FF423
:1010F00032720021424815F0C4FE0C220021414802
:1011000015F0BFFE3E4807F0C5F9034683F0010322
:10111000DBB2002B01D0002369E00121394807F040
:1011200085F9034683F00103DBB2002B04D0344879
:1011300007F006FA00235AE0324B1B687B60324905
:10114000324809F09BF9034683F00103DBB2002B20
:1011500021D12F492F4809F091F9034683F001036B
:10116000DBB2002B17D17B6808332749184609F0FA
:1011700085F9034683F00103DBB2002B0BD17B68BA
:1011800014332349184609F079F9034683F0010323
:10119000DBB2002B07D01B4807F04CF9184807F0CA
:1011A000CFF9002323E016494FF000021A4BC1E9A2
:1011B0001423134910A3D3E90023C1E95E23104986
:1011C0004FF000024FF00003C1E9682379684FF047
:1011D0000002114BC1E9142310494FF000024FF0F7
:1011E0000003C1E900230E4B00221A6001231846B8
:1011F0000837BD4680BD00BF9A9999999999B93F22
:10120000880B0020500E0020D87C0108900B002095
:10121000E07C01089C0B00200000F03F600E0020E5
:10122000680E0020000000002DE9B04F8AB000AF2A
:10123000786107F1180300221A605A604FF000022B
:101240004FF00003C7E9082308F020FD0346002BF8
:1012500004D008F025FDC7E9080141E003F04AFE8B
:10126000034600229A46934652465B464FF00000E2
:101270004FF00001590141EAD261500102460B468C
:10128000B2EB0A0463EB0B054FF000024FF00003D2
:101290006B0243EAD453620214461D4614EB0A085B
:1012A00045EB0B094FF000024FF000034FEA8913A2
:1012B00043EA98634FEA8812B2EB0801B96063EB26
:1012C0000903FB60D7E902120B4613EB0A033B60EC
:1012D000134643EB0B037B60D7E90034C7E90834BE
:1012E000D7E90823002B05DA4FF000024FF0000386
:1012F000C7E90823D7E908010FA3D3E90023FFF7C3
:101300009DFB02460B461346BB61D7E908010AA3C1
:10131000D3E90023FFF792FB1346FB617B691A4672
:1013200007F1180393E8030082E80300786928377F
:10133000BD46BDE8B08F00BF00CA9A3B0000000068
:1013400080B58AB000AFF860C7E90023FB68002BC6
:1013500000F0E88003F0CEFDF8617FA3D3E900231D
:10136000C7E90823744B1B68002B0FD0724B1B6816
:10137000FA69D31A1846FFF7D5F84FF000026F4B01
:10138000FFF774FA02460B46C7E908236A4AFB696D
:10139000136067A3D3E90023D7E90801FFF73CF9FD
:1013A00002460B4610461946654BD3E90023FEF76B
:1013B0007DFF02460B466249C1E9002307F1100395
:1013C0001846FFF731FF5F4B1A4607F1100393E809
:1013D000030082E803005A4BD3E900235949C1E9CD
:1013E000082358494FF000024FF00003C1E90A23D7
:1013F00054494FF000024FF00003C1E90C2351495A
:101400004FF000024FF00003C1E90E234D494FF0A9
:1014100000024FF00003C1E910234A494FF00002D7
:101420004FF00003C1E9122346494FF00002464B3A
:10143000C1E9142343493EA3D3E90023C1E95E2354
:1014400040494FF000024FF00003C1E960233D49DD
:101450004FF000024FF00003C1E9622339494FF019
:1014600000024FF00003C1E9642336494FF0000247
:101470004FF00003C1E9662332494FF000024FF0FC
:101480000003C1E96823314B1B68BB61BB691A4685
:1014900007F1100393E8030082E80300284BD3E927
:1014A0000023B969C1E90823B9694FF000024FF080
:1014B0000003C1E90A23B9694FF000024FF00003AD
:1014C000C1E90C23B9694FF000024FF00003C1E9F4
:1014D0000E23B9694FF000024FF00003C1E9102359
:1014E000B9694FF000024FF00003C1E91223B96956
:1014F0004FF00002144BC1E9142300221149144893
:1015000007F0FAF90346002B01D008F095F9002204
:101510000E49104807F0F0F90346002B03D008F0FD
:101520008BF900E000BF2837BD4680BDAFF30080D7
:101530009A9999999999B93F680E002000408F4077
:10154000600E0020880B00200000F03F500E0020AD
:101550007C0B0020800B00209A9999999999A93FBA
:1015600080B483B000AF00237B60104B1B6B0F4A2D
:1015700043F0800313630D4B1B6B03F080037B6010
:101580007B6800233B60094B1B6B084A43F0010357
:101590001363064B1B6B03F001033B603B6800BF0A
:1015A0000C37BD465DF8047B704700BF0038024031
:1015B00080B500AF00F05AFB00F00EF8FFF7D0FF47
:1015C000FFF722FC00F046FA03F04AFCFFF744FC68
:1015D00003F06AFC00BFFDE780B594B000AF07F1EF
:1015E000200330220021184615F04BFC07F10C03B4
:1015F00000221A605A609A60DA601A610023BB60A8
:10160000284B1B6C274A43F080531364254B1B6CFB
:1016100003F08053BB60BB6800237B60224B1B68D8
:10162000214A43F4804313601F4B1B6803F480433B
:101630007B607B6801233B624FF480337B62022333
:10164000BB634FF48003FB6304233B64A8237B64E8
:101650000223BB640423FB6407F12003184601F056
:10166000C7F90346002B01D000F032F80F23FB60CE
:1016700002233B6100237B614FF4A053BB614FF415
:101680008053FB6107F10C030521184601F028FC8B
:101690000346002B01D000F01BF800BF5037BD46B9
:1016A00080BD00BF003802400070004080B582B0AD
:1016B00000AF78607B681B68044A934201D100F058
:1016C000F7FA00BF0837BD4680BD00BF00000140EB
:1016D00080B400AF72B600BF00BFFDE780B582B036
:1016E00000AF00237B60124B5B6C114A43F48043D4
:1016F00053640F4B5B6C03F480437B607B68002377
:101700003B600B4B1B6C0A4A43F080531364084B3D
:101710001B6C03F080533B603B6800220F216FF08D
:10172000010000F09DFB00BF0837BD4680BD00BF33
:101730000038024080B58CB000AF78600023BB62F7
:1017400000237B620023BB602F4B5B6C2E4A43F06F
:10175000010353642C4B5B6C03F00103BB60BB685B
:1017600007F10C0207F110031146184601F0D8FDED
:1017700001F0C2FD03465B00BB62BB6A234AA2FBC9
:1017800003239B0C013B7B62214B224A1A60204BB6
:1017900040F2E732DA601E4A7B6A53601C4B00223B
:1017A0001A611B4B00229A60194B00229A6118485B
:1017B00001F0E8FD034687F82F3097F82F30002B13
:1017C0001BD1134801F038FE034687F82F3097F8F5
:1017D0002F30002B11D1192000F05EFB7B680F2BFE
:1017E00008D800227968192000F03AFB0A4A7B6881
:1017F000136002E0012387F82F3097F82F30184646
:101800003037BD4680BD00BF0038024083DE1B4339
:101810007C3E0020000001400800002080B400AFA2
:1018200000BFFDE780B400AF00BFFDE780B400AFAC
:1018300000BFFDE780B400AF00BFFDE780B400AF9C
:1018400000BFFDE780B400AF00BFBD465DF8047B7C
:101850007047000080B500AF024801F05DFE00BF98
:1018600080BD00BF7C3E002080B500AF024802F082
:1018700095F900BF80BD00BFCC3E002080B500AF11
:10188000024800F0AFFC00BF80BD00BF143F002045
:1018900080B500AF024800F0A5FC00BF80BD00BFCE
:1018A000743F002080B400AF01231846BD465DF8A8
:1018B000047B704780B582B000AF7860396015F066
:1018C00073FB034616221A604FF0FF3318460837A1
:1018D000BD4680BD80B582B000AF78604FF0FF316B
:1018E0007868FFF7E7FF00BFFDE780B586B000AF7F
:1018F000F860B9607A6000237B610AE0AFF3008092
:101900000146BB685A1CBA60CAB21A707B690133BF
:101910007B617A697B689A42F0DB7B6818461837EE
:10192000BD4680BD80B586B000AFF860B9607A6012
:1019300000237B6109E0BB685A1CBA601B7818461B
:10194000AFF300807B6901337B617A697B689A42DF
:10195000F1DB7B6818461837BD4680BD80B483B084
:1019600000AF78604FF0FF3318460C37BD465DF886
:10197000047B704780B483B000AF786039603B6807
:101980004FF400525A60002318460C37BD465DF8EC
:10199000047B704780B483B000AF786001231846A1
:1019A0000C37BD465DF8047B704780B485B000AF4E
:1019B000F860B9607A60002318461437BD465DF8B8
:1019C000047B704780B586B000AF7860144A154B31
:1019D000D31A7B617B693B61134B1B68002B02D1DF
:1019E000114B124A1A60104B1A687B6813443A690B
:1019F0009A4207D215F0D8FA03460C221A604FF02B
:101A0000FF3309E0084B1B68FB60074B1A687B68D3
:101A10001344054A1360FB6818461837BD4680BD5D
:101A20000000022000040000C83E0020A819012088
:101A300080B400AF064BD3F88830054A43F47003F6
:101A4000C2F8883000BFBD465DF8047B704700BF18
:101A500000ED00E080B500AF114B124A1A60104B48
:101A60004FF4E1325A600E4B00229A600C4B002278
:101A7000DA600B4B00221A61094B0C225A61084BA9
:101A800000229A61064B0022DA61054801F016FF38
:101A90000346002B01D0FFF71BFE00BF80BD00BF37
:101AA000CC3E00200010014080B58AB000AF7860C5
:101AB00007F1140300221A605A609A60DA601A6112
:101AC0007B681B684D4A934240F0948000233B6141
:101AD0004B4B5B6C4A4A43F010035364484B5B6CBE
:101AE00003F010033B613B690023FB60444B1B6B1D
:101AF000434A43F001031363414B1B6B03F00103A3
:101B0000FB60FB684FF4C0637B610223BB61002371
:101B1000FB6103233B6207237B6207F11403194631
:101B2000384800F0C9FD384B384A1A60364B4FF040
:101B300000625A60344B00229A60334B0022DA6014
:101B4000314B4FF480621A612F4B00225A612E4BA9
:101B500000229A612C4B4FF48072DA612A4B4FF4C9
:101B600040321A62284B00225A62274800F0A2F93C
:101B70000346002B01D0FFF7ABFD7B68224ADA63F6
:101B8000214A7B689363224B224A1A60204B4FF014
:101B900000625A601E4B40229A601D4B0022DA60A0
:101BA0001B4B4FF480621A61194B00225A61184B8B
:101BB00000229A61164B0022DA61154B4FF4403235
:101BC0001A62134B00225A62114800F073F903465F
:101BD000002B01D0FFF77CFD7B680D4A9A630C4A0D
:101BE0007B68936300220521252000F039F9252028
:101BF00000F052F900BF2837BD4680BD00100140FB
:101C00000038024000000240143F002040640240BF
:101C1000743F0020B8640240DFF834D0FFF708FFBB
:101C20000C480D490D4A002302E0D458C450043337
:101C3000C4188C42F9D30A4A0A4C002301E013600D
:101C40000432A242FBD315F0B5F9FFF7B1FC70479F
:101C500000000220000000205C0B0020388F0108EB
:101C6000600B0020A4190120FEE7000080B500AF42
:101C70000E4B1B680D4A43F4007313600B4B1B683B
:101C80000A4A43F480631360084B1B68074A43F415
:101C900080731360032000F0D8F80F20FFF74AFD8F
:101CA000FFF71CFD0023184680BD00BF003C02402A
:101CB00080B400AF064B1B781A46064B1B681344D2
:101CC000044A136000BFBD465DF8047B704700BF47
:101CD0000C000020D43F002080B400AF034B1B68F1
:101CE0001846BD465DF8047B704700BFD43F002016
:101CF00080B485B000AF78607B6803F00703FB60B9
:101D00000C4BDB68BB60BA684FF6FF031340BB6047
:101D1000FB681A02BB68134343F0BF6343F400330C
:101D2000BB60044ABB68D36000BF1437BD465DF892
:101D3000047B704700ED00E080B400AF044BDB682B
:101D40001B0A03F007031846BD465DF8047B704785
:101D500000ED00E080B483B000AF0346FB7197F95B
:101D60000730002B0BDBFB7903F01F02074997F9C3
:101D700007305B09012000FA02F241F8232000BF7E
:101D80000C37BD465DF8047B704700BF00E100E002
:101D900080B483B000AF03463960FB7197F9073018
:101DA000002B0ADB3B68DAB20C4997F907301201C5
:101DB000D2B20B4483F800230AE03B68DAB2084948
:101DC000FB7903F00F03043B1201D2B20B441A76E5
:101DD00000BF0C37BD465DF8047B704700E100E0B2
:101DE00000ED00E080B489B000AFF860B9607A60BF
:101DF000FB6803F00703FB61FB69C3F10703042BD6
:101E000028BF0423BB61FB690433062B02D9FB699D
:101E1000033B00E000237B614FF0FF32BB6902FA15
:101E200003F3DA43BB681A407B699A404FF0FF31F5
:101E30007B6901FA03F3D9437B680B4013431846CF
:101E40002437BD465DF8047B704780B582B000AF93
:101E500078607868FFF74CFF00BF0837BD4680BD4B
:101E600080B586B000AF0346B9607A60FB7300238B
:101E70007B61FFF761FF78617A68B9687869FFF77D
:101E8000B1FF024697F90F3011461846FFF780FF61
:101E900000BF1837BD4680BD80B582B000AF034695
:101EA000FB7197F907301846FFF754FF00BF08375A
:101EB000BD4680BD80B586B000AF786000237B61F1
:101EC000FFF70AFF38617B68002B01D1012399E0FD
:101ED0007B68022283F835207B68002283F8342057
:101EE0007B681B681A687B681B6822F001021A6015
:101EF0000FE0FFF7F1FE02463B69D31A052B08D924
:101F00007B6820225A657B68032283F835200323EF
:101F100078E07B681B681B6803F00103002BE8D1A5
:101F20007B681B681B687B617A69384B13407B6157
:101F30007B685A687B689B681A437B68DB681A4336
:101F40007B681B691A437B685B691A437B689B69E2
:101F50001A437B68DB691A437B681B6A13437A69FF
:101F600013437B617B685B6A042B07D17B68DA6A69
:101F70007B681B6B13437A6913437B617B681B6827
:101F80007A691A607B681B685B697B617B6923F0F7
:101F900007037B617B685B6A7A6913437B617B68BB
:101FA0005B6A042B17D17B689B6A7A6913437B6158
:101FB0007B68DB6A002B0ED0786800F001FB0346DB
:101FC000002B08D07B6840225A657B68012283F889
:101FD0003520012316E07B681B687A695A617868AE
:101FE00000F0B8FA0346FB607B68DB6D3F229A4045
:101FF000FB689A607B6800225A657B68012283F83F
:102000003520002318461837BD4680BD3F8010F0AC
:1020100080B586B000AFF860B9607A603B6000239D
:10202000FB75FB689B6D3B61FB6893F83430012BBB
:1020300001D1022340E0FB68012283F83420FB68D1
:1020400093F83530DBB2012B2FD1FB68022283F8E5
:102050003520FB6800225A653B687A68B968F868E1
:1020600000F04AFAFB68DB6D3F229A403B699A60B8
:10207000FB681B681A68FB681B6842F016021A604E
:10208000FB681B6C002B07D0FB681B681A68FB6899
:102090001B6842F008021A60FB681B681A68FB683C
:1020A0001B6842F001021A6005E0FB68002283F819
:1020B00034200223FB75FB7D18461837BD4680BDD2
:1020C00080B584B000AF78607B689B6DFB60FFF7E4
:1020D00003FEB8607B6893F83530DBB2022B08D082
:1020E0007B6880225A657B68002283F834200123B4
:1020F00052E07B681B681A687B681B6822F0160236
:102100001A607B681B685A697B681B6822F0800232
:102110005A617B681B6C002B03D17B689B6C002B86
:1021200007D07B681B681A687B681B6822F008026E
:102130001A607B681B681A687B681B6822F00102C2
:102140001A6013E0FFF7C8FD0246BB68D31A052BDF
:102150000CD97B6820225A657B68032283F83520DE
:102160007B68002283F83420032315E07B681B681A
:102170001B6803F00103002BE4D17B68DB6D3F2279
:102180009A40FB689A607B68012283F835207B685F
:10219000002283F83420002318461037BD4680BD46
:1021A00080B483B000AF78607B6893F83530DBB2E1
:1021B000022B04D07B6880225A6501230CE07B68E7
:1021C000052283F835207B681B681A687B681B68CA
:1021D00022F001021A60002318460C37BD465DF854
:1021E000047B704780B586B000AF78600023BB6089
:1021F0008E4B1B688E4AA2FB03239B0A7B617B6884
:102200009B6D3B613B691B68FB607B68DB6D082253
:102210009A40FB681340002B1AD07B681B681B6830
:1022200003F00403002B13D07B681B681A687B68DB
:102230001B6822F004021A607B68DB6D08229A405A
:102240003B699A607B685B6D43F001027B685A656D
:102250007B68DB6D01229A40FB681340002B12D093
:102260007B681B685B6903F08003002B0BD07B68E5
:10227000DB6D01229A403B699A607B685B6D43F09D
:1022800002027B685A657B68DB6D04229A40FB681A
:102290001340002B12D07B681B681B6803F00203FD
:1022A000002B0BD07B68DB6D04229A403B699A605F
:1022B0007B685B6D43F004027B685A657B68DB6D6D
:1022C00010229A40FB681340002B43D07B681B68A8
:1022D0001B6803F00803002B3CD07B68DB6D1022E9
:1022E0009A403B699A607B681B681B6803F48023F3
:1022F000002B18D07B681B681B6803F40023002B9D
:1023000008D17B681B6C002B24D07B681B6C786821
:1023100098471FE07B689B6C002B1BD07B689B6CF5
:102320007868984716E07B681B681B6803F4807325
:10233000002B07D17B681B681A687B681B6822F03A
:1023400008021A607B681B6C002B03D07B681B6C37
:10235000786898477B68DB6D20229A40FB681340C1
:10236000002B00F08F807B681B681B6803F0100354
:10237000002B00F087807B68DB6D20229A403B6950
:102380009A607B6893F83530DBB2052B36D17B68D9
:102390001B681A687B681B6822F016021A607B684B
:1023A0001B685A697B681B6822F080025A617B684F
:1023B0001B6C002B03D17B689B6C002B07D07B68C8
:1023C0001B681A687B681B6822F008021A607B6829
:1023D000DB6D3F229A403B699A607B68012283F85B
:1023E00035207B68002283F834207B681B6D002B2E
:1023F0007ED07B681B6D7868984779E07B681B68A6
:102400001B6803F48023002B1DD07B681B681B68AE
:1024100003F40023002B0DD17B685B6C002B31D0C3
:102420007B685B6C786898472CE000BF0400002054
:10243000B5814E1B7B68DB6B002B23D07B68DB6B8D
:10244000786898471EE07B681B681B6803F48073FC
:10245000002B0FD17B681B681A687B681B6822F011
:1024600010021A607B68012283F835207B68002205
:1024700083F834207B68DB6B002B03D07B68DB6B3D
:10248000786898477B685B6D002B32D07B685B6D0A
:1024900003F00103002B22D07B68052283F835204E
:1024A0007B681B681A687B681B6822F001021A604F
:1024B000BB680133BB607A699A4207D37B681B68AB
:1024C0001B6803F00103002BF2D100E000BF7B6822
:1024D000012283F835207B68002283F834207B6852
:1024E000DB6C002B05D07B68DB6C7868984700E0DC
:1024F00000BF1837BD4680BD80B485B000AFF8601E
:10250000B9607A603B60FB681B681A68FB681B68EF
:1025100022F480221A60FB681B683A685A60FB68E4
:102520009B68402B08D1FB681B687A689A60FB683F
:102530001B68BA68DA6007E0FB681B68BA689A60D3
:10254000FB681B687A68DA6000BF1437BD465DF827
:10255000047B704780B485B000AF78607B681B68EF
:10256000DBB2103B144AA2FB03231B09FB60134A96
:10257000FB6813441B781A467B68DA65FB68032BFB
:1025800009D97B681B6823F47F7323F003031A1DAA
:102590007B689A6507E07B681B6823F47F7323F0F0
:1025A00003037A6893657B689B6D18461437BD46B4
:1025B0005DF8047B704700BFABAAAAAA647D01083E
:1025C00080B485B000AF78600023FB737B689B6AA2
:1025D000BB607B689B69002B1FD1BB68032B56D85F
:1025E00001A252F823F000BFF92500080B260008CD
:1025F000F92500088F2600087B68DB6A03F08073EA
:10260000002B46D00123FB7343E07B68DB6AB3F108
:10261000C07F40D10123FB733DE07B689B69B3F52C
:10262000005F21D1BB68032B37D801A252F823F0F9
:1026300041260008472600084126000859260008C0
:102640000123FB7330E07B68DB6A03F08073002BAF
:1026500025D00123FB7322E07B68DB6AB3F1C07FE6
:102660001FD10123FB731CE0BB68022B03D9BB689D
:10267000032B03D018E00123FB7315E07B68DB6AB2
:1026800003F08073002B0ED00123FB730BE000BF1F
:102690000AE000BF08E000BF06E000BF04E000BFA2
:1026A00002E000BF00E000BFFB7B18461437BD46C8
:1026B0005DF8047B704700BF80B489B000AF7860DC
:1026C000396000237B6100233B610023BB61002351
:1026D000FB616BE10122FB6902FA03F37B613B685A
:1026E0001B687A6913403B613A697B699A4240F002
:1026F0005A813B685B6803F00303012B05D03B68FC
:102700005B6803F00303022B30D17B689B68BB61DD
:10271000FB695B00032202FA03F3DB43BA6913404F
:10272000BB613B68DA68FB695B0002FA03F3BA69D4
:102730001343BB617B68BA699A607B685B68BB6165
:102740000122FB6902FA03F3DB43BA691340BB6160
:102750003B685B681B0903F00102FB6902FA03F3A3
:10276000BA691343BB617B68BA695A603B685B68AE
:1027700003F00303032B17D07B68DB68BB61FB69A5
:102780005B00032202FA03F3DB43BA691340BB6127
:102790003B689A68FB695B0002FA03F3BA6913436A
:1027A000BB617B68BA69DA603B685B6803F003036E
:1027B000022B23D1FB69DA087B68083253F82230F8
:1027C000BB61FB6903F007039B000F2202FA03F3CE
:1027D000DB43BA691340BB613B681A69FB6903F0CC
:1027E00007039B0002FA03F3BA691343BB61FB6959
:1027F000DA087B680832B96943F822107B681B68E5
:10280000BB61FB695B00032202FA03F3DB43BA6995
:102810001340BB613B685B6803F00302FB695B002C
:1028200002FA03F3BA691343BB617B68BA691A60A1
:102830003B685B6803F44033002B00F0B480002356
:10284000FB60604B5B6C5F4A43F4804353645D4BB9
:102850005B6C03F48043FB60FB685B4AFB699B088D
:10286000023352F82330BB61FB6903F003039B0082
:102870000F2202FA03F3DB43BA691340BB617B68A2
:10288000524A93422BD07B68514A934225D07B68B1
:10289000504A93421FD07B684F4A934219D07B68BD
:1028A0004E4A934213D07B684D4A93420DD07B68C9
:1028B0004C4A934207D07B684B4A934201D107238D
:1028C0000EE008230CE006230AE0052308E00423B9
:1028D00006E0032304E0022302E0012300E00023DA
:1028E000FA6902F0030292009340BA691343BB6194
:1028F0003549FB699B080233BA6941F823203B4BF9
:102900009B68BB613B69DB43BA691340BB613B68B1
:102910005B6803F48013002B03D0BA693B6913434F
:10292000BB61324ABB699360304BDB68BB613B697A
:10293000DB43BA691340BB613B685B6803F4001377
:10294000002B03D0BA693B691343BB61274ABB69BB
:10295000D360264B5B68BB613B69DB43BA691340BC
:10296000BB613B685B6803F40033002B03D0BA699A
:102970003B691343BB611D4ABB6953601B4B1B681A
:10298000BB613B69DB43BA691340BB613B685B6871
:1029900003F48033002B03D0BA693B691343BB6156
:1029A000124ABB691360FB690133FB61FB690F2BA2
:1029B0007FF690AE00BF00BF2437BD465DF8047BB4
:1029C000704700BF0038024000380140000002405C
:1029D0000004024000080240000C024000100240C7
:1029E0000014024000180240001C0240003C01405C
:1029F00080B586B000AF78607B68002B01D10123E1
:102A000067E27B681B6803F00103002B75D0884BDD
:102A10009B6803F00C03042B0CD0854B9B6803F0E0
:102A20000C03082B12D1824B5B6803F48003B3F5CF
:102A3000800F0BD17E4B1B6803F40033002B5BD05F
:102A40007B685B68002B57D1012342E27B685B689F
:102A5000B3F5803F06D1764B1B68754A43F480334B
:102A600013601DE07B685B68B3F5A02F0CD1704B41
:102A70001B686F4A43F4802313606D4B1B686C4ADC
:102A800043F4803313600BE0694B1B68684A23F4FE
:102A900080331360664B1B68654A23F48023136000
:102AA0007B685B68002B13D0FFF716F9386108E0EC
:102AB000FFF712F902463B69D31A642B01D90323AD
:102AC00007E25B4B1B6803F40033002BF0D014E0EB
:102AD000FFF702F9386108E0FFF7FEF802463B69AC
:102AE000D31A642B01D90323F3E1514B1B6803F480
:102AF0000033002BF0D100E000BF7B681B6803F0BF
:102B00000203002B63D04A4B9B6803F00C03002B9D
:102B10000BD0474B9B6803F00C03082B1CD1444B94
:102B20005B6803F48003002B16D1414B1B6803F054
:102B30000203002B05D07B68DB68012B01D0012349
:102B4000C7E13B4B1B6823F0F8027B681B69DB0085
:102B5000374913430B603AE07B68DB68002B20D0D9
:102B6000344B01221A60FFF7B7F8386108E0FFF72D
:102B7000B3F802463B69D31A022B01D90323A8E11B
:102B80002B4B1B6803F00203002BF0D0284B1B6873
:102B900023F0F8027B681B69DB00254913430B60B7
:102BA00015E0244B00221A60FFF796F8386108E020
:102BB000FFF792F802463B69D31A022B01D903238F
:102BC00087E11B4B1B6803F00203002BF0D17B68ED
:102BD0001B6803F00803002B36D07B685B69002B71
:102BE00016D0154B01221A60FFF776F8386108E01D
:102BF000FFF772F802463B69D31A022B01D903236F
:102C000067E10B4B5B6F03F00203002BF0D01BE07E
:102C1000094B00221A60FFF75FF838610EE0FFF7FA
:102C20005BF802463B69D31A022B07D9032350E114
:102C30000038024000004742800E4742884B5B6FDD
:102C400003F00203002BEAD17B681B6803F0040346
:102C5000002B00F097800023FB75814B1B6C03F069
:102C60008053002B0FD10023BB607D4B1B6C7C4A33
:102C700043F0805313647A4B1B6C03F08053BB60AA
:102C8000BB680123FB75774B1B6803F48073002B33
:102C900018D1744B1B68734A43F480731360FFF7B9
:102CA0001BF8386108E0FFF717F802463B69D31AB2
:102CB000022B01D903230CE16A4B1B6803F48073D8
:102CC000002BF0D07B689B68012B06D1644B1B6FF7
:102CD000634A43F0010313671CE07B689B68052B84
:102CE0000CD15F4B1B6F5E4A43F0040313675C4BD0
:102CF0001B6F5B4A43F0010313670BE0584B1B6FDC
:102D0000574A23F001031367554B1B6F544A23F0B6
:102D1000040313677B689B68002B15D0FEF7DCFF6C
:102D200038610AE0FEF7D8FF02463B69D31A41F248
:102D30008832934201D90323CBE0494B1B6F03F048
:102D40000203002BEED014E0FEF7C6FF38610AE064
:102D5000FEF7C2FF02463B69D31A41F28832934222
:102D600001D90323B5E03E4B1B6F03F00203002B98
:102D7000EED1FB7D012B05D1394B1B6C384A23F07A
:102D8000805313647B689B69002B00F0A180344B57
:102D90009B6803F00C03082B5CD07B689B69022BBB
:102DA00041D1314B00221A60FEF796FF386108E0EE
:102DB000FEF792FF02463B69D31A022B01D9032387
:102DC00087E0274B1B6803F00073002BF0D17B6872
:102DD000DA697B681B6A1A437B685B6A9B011A434A
:102DE0007B689B6A5B08013B1B041A437B68DB6AB8
:102DF0001B061B4913434B601B4B01221A60FEF755
:102E00006BFF386108E0FEF767FF02463B69D31AA3
:102E1000022B01D903235CE0114B1B6803F0007304
:102E2000002BF0D054E0104B00221A60FEF754FF44
:102E3000386108E0FEF750FF02463B69D31A022BC7
:102E400001D9032345E0064B1B6803F00073002BF8
:102E5000F0D13DE07B689B69012B07D1012338E06D
:102E60000038024000700040600047421B4B5B6826
:102E7000FB607B689B69012B28D0FB6803F4800210
:102E80007B68DB699A4221D1FB6803F03F027B68D3
:102E90001B6A9A421AD1FA6847F6C07313407A68DF
:102EA000526A9201934211D1FB6803F440327B686D
:102EB0009B6A5B08013B1B049A4207D1FB6803F045
:102EC00070627B68DB6A1B069A4201D0012300E036
:102ED000002318461837BD4680BD00BF00380240A9
:102EE00080B584B000AF786039607B68002B01D179
:102EF0000123CCE0684B1B6803F007033A689A4251
:102F00000CD9654B3A68D2B21A70634B1B6803F058
:102F100007033A689A4201D00123B8E07B681B6836
:102F200003F00203002B20D07B681B6803F004032E
:102F3000002B05D0594B9B68584A43F4E0539360EB
:102F40007B681B6803F00803002B05D0534B9B687C
:102F5000524A43F460439360504B9B6823F0F00265
:102F60007B689B684D4913438B607B681B6803F04B
:102F70000103002B44D07B685B68012B07D1474BD2
:102F80001B6803F40033002B19D101237FE07B6819
:102F90005B68022B03D07B685B68032B07D13F4B38
:102FA0001B6803F00073002B09D101236FE03B4B3A
:102FB0001B6803F00203002B01D1012367E0374BAC
:102FC0009B6823F003027B685B68344913438B6082
:102FD000FEF782FEF8600AE0FEF77EFE0246FB681E
:102FE000D31A41F28832934201D903234FE02B4B8D
:102FF0009B6803F00C027B685B689B009A42EBD1F4
:10300000254B1B6803F007033A689A420CD2224B07
:103010003A68D2B21A70204B1B6803F007033A6873
:103020009A4201D0012332E07B681B6803F004035D
:10303000002B08D0194B9B6823F4E0527B68DB68B7
:10304000164913438B607B681B6803F00803002B51
:1030500009D0124B9B6823F460427B681B69DB003C
:103060000E4913438B6000F021F802460B4B9B681E
:103070001B0903F00F030A49CB5C22FA03F3094A48
:103080001360094B1B681846FEF754FB00231846D3
:103090001037BD4680BD00BF003C024000380240F2
:1030A0004C7D010804000020080000202DE9B04FED
:1030B00094B000AF00237B640023FB6400233B64D7
:1030C0000023BB64794B9B6803F00C03082B0DD0E5
:1030D000082B00F2E180002B02D0042B03D0DBE0B0
:1030E000734BBB64DBE0734BBB64D8E06F4B5B6836
:1030F00003F03F037B646D4B5B6803F48003002B9C
:1031000063D06A4B5B689B090022BB63FA63BB6BAD
:10311000C3F308033B6300237B63D7E90C452246D6
:103120002B464FF000004FF00001590141EAD261F7
:10313000500102460B462146511A3961294663EB7C
:1031400001037B614FF000024FF00003D7E904ABAD
:1031500059468B01514643EA916351468A015146D3
:10316000B2EB0108594663EB01094FF000024FF042
:1031700000034FEAC90343EA58734FEAC802904676
:103180009946234618EB0303BB602B4649EB030328
:10319000FB604FF000024FF00003D7E902452946DB
:1031A0004B02214643EAD15321464A0210461946B2
:1031B0007B6C0022BB62FA62D7E90A23FDF78EFC22
:1031C00002460B461346FB6458E0384B5B689B098C
:1031D000002218461146C0F308033B6200237B62BD
:1031E000D7E9088942464B464FF000004FF00001F6
:1031F000590141EAD261500102460B464146B2EB09
:10320000010A494663EB010B4FF000024FF0000347
:103210004FEA8B1343EA9A634FEA8A12B2EB0A042D
:1032200063EB0B054FF000024FF00003EB0043EAA5
:103230005473E20014461D464346E3183B604B4678
:1032400045EB03037B604FF000024FF00003D7E92A
:10325000004529468B02214643EA915321468A02C2
:10326000104619467B6C0022BB61FA61D7E9062340
:10327000FDF734FC02460B461346FB640B4B5B68C0
:103280001B0C03F0030301335B003B64FA6C3B6CE3
:10329000B2FBF3F3BB6402E0054BBB6400BFBB6C45
:1032A00018465037BD46BDE8B08F00BF0038024019
:1032B0000024F40000127A0080B400AF034B1B68B6
:1032C0001846BD465DF8047B704700BF040000202F
:1032D00080B500AFFFF7F0FF0246054B9B689B0AE5
:1032E00003F007030349CB5C22FA03F3184680BDC1
:1032F000003802405C7D010880B500AFFFF7DCFFBD
:103300000246054B9B685B0B03F007030349CB5C4C
:1033100022FA03F3184680BD003802405C7D0108A4
:1033200080B483B000AF786039607B680F221A6088
:10333000124B9B6803F003027B685A600F4B9B683B
:1033400003F0F0027B689A600C4B9B6803F4E05238
:103350007B68DA60094B9B68DB0803F4E0527B680A
:103360001A61074B1B6803F007023B681A6000BF35
:103370000C37BD465DF8047B704700BF0038024043
:10338000003C024080B582B000AF78607B68002BC3
:1033900001D1012341E07B6893F83D30DBB2002B83
:1033A00006D17B68002283F83C20786800F039F869
:1033B0007B68022283F83D207B681A687B680433AF
:1033C0001946104600F0C0F97B68012283F84620B8
:1033D0007B68012283F83E207B68012283F83F202E
:1033E0007B68012283F840207B68012283F841201A
:1033F0007B68012283F842207B68012283F8432006
:103400007B68012283F844207B68012283F84520F1
:103410007B68012283F83D20002318460837BD460B
:1034200080BD80B483B000AF786000BF0C37BD466C
:103430005DF8047B7047000080B485B000AF786011
:103440007B6893F83D30DBB2012B01D001234EE0C5
:103450007B68022283F83D207B681B68DA687B6802
:103460001B6842F00102DA607B681B68234A9342C2
:1034700022D07B681B68B3F1804F1DD07B681B682E
:103480001F4A934218D07B681B681E4A934213D090
:103490007B681B681C4A93420ED07B681B681B4AE2
:1034A000934209D07B681B68194A934204D07B6819
:1034B0001B68184A934211D17B681B689B6803F014
:1034C0000703FB60FB68062B10D07B681B681A683B
:1034D0007B681B6842F001021A6007E07B681B688A
:1034E0001A687B681B6842F001021A6000231846C4
:1034F0001437BD465DF8047B704700BF00000140F3
:103500000004004000080040000C0040000401409E
:10351000004001400018004080B584B000AF7860E2
:103520007B681B68DB68FB607B681B681B69BB6092
:10353000BB6803F00203002B20D0FB6803F00203FA
:10354000002B1BD07B681B686FF002021A617B683E
:1035500001221A777B681B689B6903F00303002B29
:1035600003D0786800F0D2F805E0786800F0C4F87D
:10357000786800F0D5F87B6800221A77BB6803F002
:103580000403002B20D0FB6803F00403002B1BD0A6
:103590007B681B686FF004021A617B6802221A774D
:1035A0007B681B689B6903F44073002B03D0786829
:1035B00000F0ACF805E0786800F09EF8786800F05C
:1035C000AFF87B6800221A77BB6803F00803002B72
:1035D00020D0FB6803F00803002B1BD07B681B681E
:1035E0006FF008021A617B6804221A777B681B68F7
:1035F000DB6903F00303002B03D0786800F086F842
:1036000005E0786800F078F8786800F089F87B6861
:1036100000221A77BB6803F01003002B20D0FB6850
:1036200003F01003002B1BD07B681B686FF01002A7
:103630001A617B6808221A777B681B68DB6903F4D0
:103640004073002B03D0786800F060F805E07868DC
:1036500000F052F8786800F063F87B6800221A776F
:10366000BB6803F00103002B0CD0FB6803F00103DF
:10367000002B07D07B681B686FF001021A61786825
:10368000FEF714F8BB6803F08003002B0CD0FB6836
:1036900003F08003002B07D07B681B686FF080026B
:1036A0001A61786800F000F9BB6803F04003002B52
:1036B0000CD0FB6803F04003002B07D07B681B682D
:1036C0006FF040021A61786800F034F8BB6803F0CC
:1036D0002003002B0CD0FB6803F02003002B07D045
:1036E0007B681B686FF020021A61786800F0D2F8DE
:1036F00000BF1037BD4680BD80B483B000AF786096
:1037000000BF0C37BD465DF8047B704780B483B0C2
:1037100000AF786000BF0C37BD465DF8047B704792
:1037200080B483B000AF786000BF0C37BD465DF851
:10373000047B704780B483B000AF786000BF0C3763
:10374000BD465DF8047B704780B485B000AF7860FB
:1037500039607B681B68FB607B68434A934213D0E7
:103760007B68B3F1804F0FD07B68404A93420BD007
:103770007B683F4A934207D07B683E4A934203D01E
:103780007B683D4A934208D1FB6823F07003FB60DD
:103790003B685B68FA681343FB607B68324A93427C
:1037A0002BD07B68B3F1804F27D07B682F4A9342A0
:1037B00023D07B682E4A93421FD07B682D4A9342C8
:1037C0001BD07B682C4A934217D07B682B4A9342CC
:1037D00013D07B682A4A93420FD07B68294A9342D0
:1037E0000BD07B68284A934207D07B68274A9342D4
:1037F00003D07B68264A934208D1FB6823F44073C8
:10380000FB603B68DB68FA681343FB60FB6823F0EE
:1038100080023B685B691343FB603B689A687B6886
:10382000DA623B681A687B689A627B680E4A934248
:1038300003D07B68104A934203D13B681A697B68C6
:103840001A637B681B6843F004027B681A607B681C
:1038500001225A617B68FA681A6000BF1437BD46BE
:103860005DF8047B704700BF000001400004004089
:1038700000080040000C00400004014000400140EE
:10388000004401400048014000180040001C004076
:103890000020004080B483B000AF786000BF0C37D8
:1038A000BD465DF8047B704780B483B000AF78609C
:1038B00000BF0C37BD465DF8047B704780B582B011
:1038C00000AF78607B68002B01D1012342E07B6868
:1038D00093F84130DBB2002B06D17B68002283F8DD
:1038E00040207868FEF7E0F87B68242283F84120C6
:1038F0007B681B68DA687B681B6822F40052DA6018
:10390000786800F0F5FF7B681B681A697B681B68A4
:1039100022F490421A617B681B685A697B681B68B5
:1039200022F02A025A617B681B68DA687B681B6890
:1039300042F40052DA607B6800225A647B682022DD
:1039400083F841207B68202283F842207B68002294
:103950005A63002318460837BD4680BD80B58CB039
:1039600000AFF860B9601346FB80FB6893F8413004
:10397000DBB2202B62D1BB68002B02D0FB88002B6E
:1039800001D101235BE0BA68FB681A62FB68FA8820
:103990009A84FB68FA88DA84FB6800225A64FB6820
:1039A000212283F84120FB689B6B274ADA63FB687E
:1039B0009B6B264A1A64FB689B6B254ADA64FB689A
:1039C0009B6B00221A6507F10803FB62FB68986B8A
:1039D000FB6A1968FB681B6804331A46FB88FEF70C
:1039E00017FB0346002B08D0FB6810225A64FB68C3
:1039F000202283F84120012321E0FB681B686FF03F
:103A000040021A60FB681B681433BB61BB6953E852
:103A1000003F7B617B6943F08003BB62FB681B68EE
:103A20001433BA6A7A623B62396A7A6A41E80023DF
:103A3000FB61FB69002BE5D1002300E0022318465F
:103A40003037BD4680BD00BF6D4100080742000809
:103A50008B43000880B584B000AFF860B9601346AE
:103A6000FB80FB6893F84230DBB2202B12D1BB689D
:103A7000002B02D0FB88002B01D101230BE0FB6857
:103A800000221A63FB881A46B968F86800F0C8FC7F
:103A9000034600E0022318461037BD4680BD80B5BE
:103AA00090B000AF78600023FB637B681B685B69A4
:103AB00003F08003802B0CBF01230023DBB2FB63E8
:103AC0007B6893F84130DBB2212B28D1FB6B002BB4
:103AD00025D07B681B6814337B627B6A53E8003F08
:103AE0003B623B6A23F08003BB637B681B68143333
:103AF000BA6B3A63FB62F96A3A6B41E80023BB6236
:103B0000BB6A002BE5D17B689B6B002B04D07B68E4
:103B10009B6B1846FEF7D4FA786800F027FD7B68A7
:103B20001B685B6903F04003402B0CBF012300239B
:103B3000DBB2FB637B6893F84230DBB2222B28D1E7
:103B4000FB6B002B25D07B681B6814333B613B6902
:103B500053E8003FFB60FB6823F040037B637B6816
:103B60001B6814337A6BFA61BB61B969FA6941E881
:103B700000237B617B69002BE5D17B68DB6B002B2D
:103B800004D07B68DB6B1846FEF79AFA786800F081
:103B900015FD002318464037BD4680BD80B5BAB03C
:103BA00000AF78607B681B681B68C7F8E4307B68EF
:103BB0001B68DB68C7F8E0307B681B685B69C7F887
:103BC000DC300023C7F8D8300023C7F8D430D7F84A
:103BD000E43003F00F03C7F8D830D7F8D830002B03
:103BE0000FD1D7F8E43003F02003002B09D0D7F829
:103BF000E03003F02003002B03D0786800F0BAFD1A
:103C000073E2D7F8D830002B00F0DE80D7F8DC3034
:103C100003F00103002B06D1D7F8E03003F49073D2
:103C2000002B00F0D180D7F8E43003F00103002B23
:103C30000BD0D7F8E03003F48073002B05D07B68FD
:103C40005B6C43F001027B685A64D7F8E43003F000
:103C50000403002B0BD0D7F8DC3003F00103002B5A
:103C600005D07B685B6C43F002027B685A64D7F82E
:103C7000E43003F00203002B0BD0D7F8DC3003F064
:103C80000103002B05D07B685B6C43F004027B686A
:103C90005A64D7F8E43003F00803002B11D0D7F8AA
:103CA000E03003F02003002B05D1D7F8DC3003F01F
:103CB0000103002B05D07B685B6C43F008027B6836
:103CC0005A647B685B6C002B00F00A82D7F8E43002
:103CD00003F02003002B08D0D7F8E03003F02003D6
:103CE000002B02D0786800F045FD7B681B685B699B
:103CF00003F04003402B0CBF01230023DBB2C7F8C5
:103D0000D4307B685B6C03F00803002B03D1D7F839
:103D1000D430002B4FD0786800F050FC7B681B68D3
:103D20005B6903F04003402B41D17B681B6814336F
:103D3000C7F89C30D7F89C3053E8003FC7F898305C
:103D4000D7F8983023F04003C7F8D0307B681B6861
:103D50001433D7F8D020C7F8A820C7F8A430D7F874
:103D6000A410D7F8A82041E80023C7F8A030D7F85E
:103D7000A030002BD9D17B68DB6B002B13D07B6884
:103D8000DB6B8A4A1A657B68DB6B1846FEF708FA1C
:103D90000346002B16D07B68DB6B1B6D7A68D26BF9
:103DA000104698470EE0786800F0CAF90AE0786893
:103DB00000F0C6F906E0786800F0C2F97B680022DE
:103DC0005A648DE100BF8BE17B681B6B012B40F0D7
:103DD0006781D7F8E43003F01003002B00F0608116
:103DE000D7F8E03003F01003002B00F059810023D6
:103DF000BB607B681B681B68BB607B681B685B687B
:103E0000BB60BB687B681B685B6903F04003402BA9
:103E100040F0CE807B68DB6B1B685B68A7F8BE3028
:103E2000B7F8BE30002B00F0A9807B689B8DB7F8F7
:103E3000BE209A4280F0A2807B68B7F8BE20DA8567
:103E40007B68DB6BDB69B3F5807F00F088807B6883
:103E50001B680C33C7F88830D7F8883053E8003F28
:103E6000C7F88430D7F8843023F48073C7F8B830AB
:103E70007B681B680C33D7F8B820C7F89420C7F8C4
:103E80009030D7F89010D7F8942041E80023C7F875
:103E90008C30D7F88C30002BD9D17B681B68143359
:103EA0007B677B6F53E8003F3B673B6F23F0010369
:103EB000C7F8B4307B681B681433D7F8B420C7F850
:103EC0008020FB67F96FD7F8802041E80023BB67AB
:103ED000BB6F002BE1D17B681B6814333B663B6EE4
:103EE00053E8003FFB65FB6D23F04003C7F8B0309B
:103EF0007B681B681433D7F8B020FA66BB66B96ECE
:103F0000FA6E41E800237B667B6E002BE3D17B6871
:103F1000202283F842207B6800221A637B681B689A
:103F20000C33FB64FB6C53E8003FBB64BB6C23F0B9
:103F30001003C7F8AC307B681B680C33D7F8AC2093
:103F4000BA657B65796DBA6D41E800233B653B6DD1
:103F5000002BE3D17B68DB6B1846FEF7B1F87B687A
:103F600002225A637B689A8D7B68DB8D9BB2D31AE1
:103F70009BB21946786800F0EDF8B3E07B689B8D42
:103F8000B7F8BE209A4240F0AD807B68DB6BDB69FE
:103F9000B3F5807F40F0A6807B6802225A637B687D
:103FA0009B8D1946786800F0D5F89BE083460008A1
:103FB0007B689A8D7B68DB8D9BB2D31AA7F8CE30D5
:103FC0007B68DB8D9BB2002B00F08E80B7F8CE3083
:103FD000002B00F089807B681B680C33BB63BB6BD4
:103FE00053E8003F7B637B6B23F49073C7F8C830C2
:103FF0007B681B680C33D7F8C8207A643B64396C43
:104000007A6C41E80023FB63FB6B002BE3D17B68F8
:104010001B6814337B627B6A53E8003F3B623B6A58
:1040200023F00103C7F8C4307B681B681433D7F84A
:10403000C4203A63FB62F96A3A6B41E80023BB6231
:10404000BB6A002BE3D17B68202283F842207B6887
:1040500000221A637B681B680C333B613B6953E8A1
:10406000003FFB60FB6823F01003C7F8C0307B689B
:104070001B680C33D7F8C020FA61BB61B969FA69D3
:1040800041E800237B617B69002BE3D17B6802223E
:104090005A63B7F8CE301946786800F05BF823E031
:1040A000D7F8E43003F08003002B09D0D7F8E030D4
:1040B00003F08003002B03D0786800F0F3FA14E0DB
:1040C000D7F8E43003F04003002B0ED0D7F8E030EF
:1040D00003F04003002B08D0786800F033FB04E0C5
:1040E00000BF02E000BF00E000BFE837BD4680BD72
:1040F00080B483B000AF786000BF0C37BD465DF878
:10410000047B704780B483B000AF786000BF0C3789
:10411000BD465DF8047B704780B483B000AF786023
:1041200000BF0C37BD465DF8047B704780B483B098
:1041300000AF786000BF0C37BD465DF8047B704768
:1041400080B483B000AF786000BF0C37BD465DF827
:10415000047B704780B483B000AF78600B467B80EF
:1041600000BF0C37BD465DF8047B704780B590B04A
:1041700000AF78607B689B6BFB637B681B681B6888
:1041800003F48073002B37D1FB6B0022DA84FB6BC6
:104190001B6814337B627B6A53E8003F3B623B6AD7
:1041A00023F08003BB63FB6B1B681433BA6B3A6369
:1041B000FB62F96A3A6B41E80023BB62BB6A002BE1
:1041C000E5D1FB6B1B680C333B613B6953E8003F57
:1041D000FB60FB6843F040037B63FB6B1B680C33A5
:1041E0007A6BFA61BB61B969FA6941E800237B61C6
:1041F0007B69002BE5D102E0F86BFFF779FF00BF88
:104200004037BD4680BD80B584B000AF78607B6824
:104210009B6BFB60F868FFF775FF00BF1037BD466A
:1042200080BD80B59CB000AF78607B689B6BFB66FF
:104230007B681B681B6803F48073002B72D1FB6ED4
:104240000022DA85FB6E1B680C33FB64FB6C53E8C1
:10425000003FBB64BB6C23F48073BB66FB6E1B68C2
:104260000C33BA6EBA657B65796DBA6D41E800238F
:104270003B653B6D002BE5D1FB6E1B681433BB63C4
:10428000BB6B53E8003F7B637B6B23F001037B66D2
:10429000FB6E1B6814337A6E7A643B64396C7A6CFB
:1042A00041E80023FB63FB6B002BE5D1FB6E1B6831
:1042B00014337B627B6A53E8003F3B623B6A23F026
:1042C00040033B66FB6E1B6814333A6E3A63FB6235
:1042D000F96A3A6B41E80023BB62BB6A002BE5D167
:1042E000FB6E202283F84220FB6E1B6B012B19D141
:1042F000FB6E1B680C333B613B6953E8003FFB607E
:10430000FB6823F01003FB65FB6E1B680C33FA6D32
:10431000FA61BB61B969FA6941E800237B617B6995
:10432000002BE5D1FB6E00225A63FB6E1B6B012B49
:1043300006D1FB6E9B8D1946F86EFFF70BFF02E06E
:10434000F86EFFF7E9FE00BF7037BD4680BD80B54F
:1043500084B000AF78607B689B6BFB60FB680122D8
:104360005A63FB681B6B012B08D1FB689B8D5B08B4
:104370009BB21946F868FFF7EDFE02E0F868FFF718
:10438000D5FE00BF1037BD4680BD80B584B000AFFC
:1043900078600023FB607B689B6BBB60BB681B681D
:1043A0005B6903F08003802B0CBF01230023DBB289
:1043B000FB60BB6893F84130DBB2212B08D1FB686E
:1043C000002B05D0BB680022DA84B86800F0CEF874
:1043D000BB681B685B6903F04003402B0CBF0123E3
:1043E0000023DBB2FB60BB6893F84230DBB2222BC8
:1043F00008D1FB68002B05D0BB680022DA85B868BD
:1044000000F0DCF8BB685B6C43F01002BB685A64D8
:10441000B868FFF795FE00BF1037BD4680BD0000AD
:1044200080B598B000AFF860B9601346FB80BA68F9
:10443000FB689A62FB68FA889A85FB6800225A64D6
:10444000FB68222283F84220FB68DB6B444ADA6374
:10445000FB68DB6B434A1A64FB68DB6B424ADA6435
:10446000FB68DB6B00221A6507F10803FB65FB683C
:10447000D86BFB681B6804331946FB6D1A68FB8810
:10448000FDF7C6FD0346002B08D0FB6810225A64D6
:10449000FB68202283F8422001235DE000233B617A
:1044A000FB681B681B683B61FB681B685B683B61C2
:1044B0003B69FB681B69002B19D0FB681B680C3338
:1044C0003B643B6C53E8003FFB63FB6B43F480733E
:1044D000BB65FB681B680C33BA6DFA64BB64B96CCE
:1044E000FA6C41E800237B647B6C002BE5D1FB6810
:1044F0001B681433FB62FB6A53E8003FBB62BB6A74
:1045000043F001037B65FB681B6814337A6DBA6363
:104510007B63796BBA6B41E800233B633B6B002BF9
:10452000E5D1FB681B681433BB61BB6953E8003FEE
:104530007B617B6943F040033B65FB681B68143378
:104540003A6D7A623B62396A7A6A41E80023FB611C
:10455000FB69002BE5D1002318466037BD4680BDBE
:10456000234200084F4300088B43000880B489B001
:1045700000AF78607B681B680C33FB60FB6853E816
:10458000003FBB60BB6823F0C003FB617B681B6816
:104590000C33FA69BA617B617969BA6941E8002331
:1045A0003B613B69002BE5D17B68202283F84120E9
:1045B00000BF2437BD465DF8047B704780B495B0DA
:1045C00000AF78607B681B680C337B637B6B53E8C0
:1045D000003F3B633B6B23F49073FB647B681B6879
:1045E0000C33FA6C3A64FB63F96B3A6C41E80023D4
:1045F000BB63BB6B002BE5D17B681B6814333B624C
:104600003B6A53E8003FFB61FB6923F00103BB6495
:104610007B681B681433BA6CFA62BB62B96AFA6AC7
:1046200041E800237B627B6A002BE5D17B681B6B32
:10463000012B19D17B681B680C33FB60FB6853E8C6
:10464000003FBB60BB6823F010037B647B681B6882
:104650000C337A6CBA617B617969BA6941E80023ED
:104660003B613B69002BE5D17B68202283F8422027
:104670007B6800221A6300BF5437BD465DF8047B97
:10468000704780B584B000AF78607B689B6BFB603F
:10469000FB680022DA85F868FFF752FD00BF10378B
:1046A000BD4680BD80B485B000AF78607B6893F86C
:1046B0004130DBB2212B3ED17B689B68B3F5805F34
:1046C00014D17B681B69002B10D17B681B6AFB60CF
:1046D000FB681B881A467B681B68C2F308025A6095
:1046E0007B681B6A9A1C7B681A6208E07B681B6AFD
:1046F000591C7A6811621A787B681B685A607B685B
:10470000DB8C9BB2013B9BB27A681946D184002BAB
:104710000FD17B681B68DA687B681B6822F0800217
:10472000DA607B681B68DA687B681B6842F04002CD
:10473000DA60002300E0022318461437BD465DF816
:10474000047B704780B582B000AF78607B681B68DF
:10475000DA687B681B6822F04002DA607B682022FE
:1047600083F841207868FFF7C3FC00231846083718
:10477000BD4680BD80B58CB000AF78600023FB6281
:104780000023BB627B6893F84230DBB2222B40F0FF
:10479000AA807B689B68B3F5805F15D17B681B6935
:1047A000002B11D17B689B6ABB627B681B685B68CE
:1047B0009BB2C3F308039AB2BB6A1A807B689B6AF8
:1047C0009A1C7B689A6224E07B689B6AFB627B6828
:1047D0009B68B3F5805F07D07B689B68002B0AD18C
:1047E0007B681B69002B06D17B681B685B68DAB2AB
:1047F000FB6A1A7008E07B681B685B68DBB203F039
:104800007F03DAB2FB6A1A707B689B6A5A1C7B686A
:104810009A627B68DB8D9BB2013B9BB27A6819463A
:10482000D185002B5DD17B681B68DA687B681B68CB
:1048300022F02002DA607B681B68DA687B681B68FC
:1048400022F48072DA607B681B685A697B681B6897
:1048500022F001025A617B68202283F842207B68A3
:1048600000225A637B681B6B012B35D17B680022C9
:104870001A637B681B680C337B617B6953E8003FDC
:104880003B613B6923F010037B627B681B680C3340
:104890007A6A3A62FB61F9693A6A41E80023BB61CE
:1048A000BB69002BE5D17B681B681B6803F0100314
:1048B000102B0AD10023FB607B681B681B68FB6020
:1048C0007B681B685B68FB60FB687B689B8D194697
:1048D0007868FFF73FFC02E07868FFF71DFC0023D3
:1048E00002E0002300E0022318463037BD4680BDB9
:1048F0002DE9B04FC0B000AFC7F8F400D7F8F430DE
:104900001B681B6923F44050D7F8F430D968D7F8F6
:10491000F4301A6840EA01031361D7F8F4309A685A
:10492000D7F8F4301B691A43D7F8F4305B691A439F
:10493000D7F8F430DB691343C7F8F830D7F8F43010
:104940001B68DB6823F4164121F00C01D7F8F43022
:104950001A68D7F8F8300B43D360D7F8F4301B68E7
:104960005B6923F44070D7F8F4309969D7F8F430D4
:104970001A6840EA01035361D7F8F4301A688F4B84
:104980009A4205D0D7F8F4301A688D4B9A4204D178
:10499000FEF7B2FCC7F8FC0003E0FEF799FCC7F88D
:1049A000FC00D7F8F430DB69B3F5004F40F00C8120
:1049B000D7F8FC300022C7F8E830C7F8EC20D7E978
:1049C0003A4522462B469118B9655B41FB65D7E90C
:1049D0001623214612EB0108294643EB01094FF04B
:1049E00000024FF000034FEAC90343EA58734FEA4D
:1049F000C80290469946234618EB0303C7F8E030F7
:104A00002B4649EB0303C7F8E430D7F8F4305B6872
:104A10000022C7F8D830C7F8DC20D7E936120B4699
:104A2000DB183B65134642EB03037B65D7E9142390
:104A3000D7E93801FCF752F802460B46614BA3FB5D
:104A400002235B091C01D7F8FC300022C7F8D030E4
:104A5000C7F8D420D7E9348942464B469118B96447
:104A60005B41FB64D7E91223414612EB010A494638
:104A700043EB010B4FF000024FF000034FEACB0372
:104A800043EA5A734FEACA0292469B4643461AEBE0
:104A90000303C7F8C8304B464BEB0303C7F8CC30D1
:104AA000D7F8F4305B680022C7F8C030C7F8C420DC
:104AB000D7E930120B46DB183B64134642EB030385
:104AC0007B64D7E91023D7E93201FCF707F80246E7
:104AD0000B4611463B4BA3FB01235B09642202FBFF
:104AE00003F3CB1ADB0003F13202364BA3FB0223A4
:104AF0005B095B0003F4F8731C44D7F8FC30002218
:104B0000C7F8B830C7F8BC20D7E92E8942464B46D3
:104B10009118B9635B41FB63D7E90E2341465118F5
:104B2000396349464B417B634FF000024FF000036D
:104B3000D7E90CAB5946CB00514643EA5173514675
:104B4000CA0010461946034642469B18C7F8B030C3
:104B50004B460A4642EB0303C7F8B430D7F8F430AB
:104B60005B680022C7F8A830C7F8AC20D7E92A1242
:104B70000B46DB18BB62134642EB0303FB62D7E92B
:104B80000A23D7E92C01FBF7A9FF02460B460D4B80
:104B9000A3FB02135B09642101FB03F3D31ADB00BF
:104BA0003233084AA2FB03235B0903F00702D7F85C
:104BB000F4301B6822449A6006E100BF00100140F7
:104BC000001401401F85EB51D7F8FC300022C7F8D4
:104BD000A030C7F8A420D7E9288942464B4691184F
:104BE00039625B417B62D7E9082341465418494644
:104BF00043EB01054FF000024FF00003EB0043EAE6
:104C00005473E20014461D464346E318C7F8983033
:104C10004B4645EB0303C7F89C30D7F8F4305B688C
:104C20000022C7F89030C7F894204FF000024FF0F0
:104C30000003D7E9244529468B00214643EA9173B6
:104C400021468A00D7E92601FBF748FF02460B46BA
:104C5000604BA3FB02235B091C01D7F8FC30002248
:104C6000C7F88830C7F88C20D7E9228942464B46DE
:104C70009118B9615B41FB61D7E9062341465118A0
:104C8000396149464B417B614FF000024FF0000310
:104C9000D7E904AB5946CB00514643EA517351461C
:104CA000CA0010461946034642469B18C7F8803092
:104CB0004B460A4642EB0303C7F88430D7F8F4307A
:104CC0005B680022BB67FA674FF000024FF00003F9
:104CD000D7E91E8949468B00414643EA9173414614
:104CE0008A00D7E92001FBF7F9FE02460B46114680
:104CF000384BA3FB01235B09642202FB03F3CB1AAD
:104D00001B013233334AA2FB03235B0903F0F00398
:104D10001C44D7F8FC3000223B677A67D7E91C892E
:104D200042464B469118B9605B41FB60D7E90223CC
:104D300041465118396049464B417B604FF00002B3
:104D40004FF00003D7E900AB5946CB00514643EA88
:104D500051735146CA0010461946034642469B18F5
:104D6000BB664B460A4642EB0303FB66D7F8F430BA
:104D70005B6800223B667A664FF000024FF000034A
:104D8000D7E9188949468B00414643EA9173414669
:104D90008A00D7E91A01FBF7A1FE02460B460D4B2C
:104DA000A3FB02135B09642101FB03F3D31A1B016C
:104DB0003233084AA2FB03235B0903F00F02D7F842
:104DC000F4301B6822449A6000BF07F58077BD4627
:104DD000BDE8B08F1F85EB5180B483B000AF0346B0
:104DE0003960FB7197F90730002B0ADB3B68DAB2B8
:104DF0000C4997F907301201D2B20B4483F8002313
:104E00000AE03B68DAB20849FB7903F00F03043B80
:104E10001201D2B20B441A7600BF0C37BD465DF8C2
:104E2000047B704700E100E000ED00E080B500AFDA
:104E3000054B1B6801F066FD0346012B01D002F013
:104E40005BFB00BF80BD00BF10E000E080B500AF9D
:104E500000216FF00400FFF7BFFF00BF80BD00001E
:104E600080B483B000AFEFF305833B603B68002B59
:104E700003D06FF005037B600CE00A4B1B68002B2E
:104E800005D1084B01221A6000237B6002E04FF03D
:104E9000FF337B607B6818460C37BD465DF8047BAA
:104EA000704700BFD83F002080B582B000AFEFF35D
:104EB00005833B603B68002B03D06FF005037B60EC
:104EC00010E00B4B1B68012B09D1FFF7BFFF084B0C
:104ED00002221A6001F08EF800237B6002E04FF09E
:104EE000FF337B607B6818460837BD4680BD00BF36
:104EF000D83F002080B582B000AFEFF305833B6060
:104F00003B68002B03D001F099F9786002E001F0D2
:104F100085F978607B6818460837BD4680BD80B546
:104F20008EB004AFF860B9607A6000233B61EFF3A4
:104F300005837B617B69002B7ED1FB68002B7BD0D6
:104F400080233B621823FB6100237B624FF0FF3319
:104F5000BB617B68002B45D07B681B68002B02D0AF
:104F60007B681B687B627B689B69002B02D07B6837
:104F70009B69FB61FB69002B08D0FB69382B05D8C6
:104F80007B685B6803F00103002B01D0002354E031
:104F90007B685B69002B03D07B685B699B083B6285
:104FA0007B689B68002B0ED07B68DB685B2B0AD983
:104FB0007B681B69002B06D07B685B69002B02D0E5
:104FC0000123BB6110E07B689B68002B0CD17B68E0
:104FD000DB68002B08D17B681B69002B04D1002300
:104FE000BB6101E00023BB61BB69012B10D17B6871
:104FF0001B697A68926802920193FB690093BB680F
:105000003A6A796AF86800F019FE03463B6113E0DA
:10501000BB69002B10D13B6A9AB207F110030193D0
:10502000FB690093BB68796AF86800F067FE034685
:10503000012B01D000233B613B6918462837BD4650
:1050400080BD80B584B000AF7860EFF30583BB60AE
:10505000BB68002B03D06FF00503FB6007E0002363
:10506000FB607B68002B02D0786800F08DFFFB6846
:1050700018461037BD4680BD80B485B000AFF860DB
:10508000B9607A60FB68074A1A60BB68064A1A6012
:105090007B6880221A6000BF1437BD465DF8047B30
:1050A000704700BFDC3F00203840002080B485B04E
:1050B00000AFF860B9607A60FB68074A1A60BB68A5
:1050C000064A1A607B684FF480721A6000BF14377A
:1050D000BD465DF8047B70473842002094420020B2
:1050E00080B483B000AF78607B6803F108027B680E
:1050F0005A607B684FF0FF329A607B6803F10802C8
:105100007B68DA607B6803F108027B681A617B6860
:1051100000221A6000BF0C37BD465DF8047B704763
:1051200080B483B000AF78607B6800221A6100BF52
:105130000C37BD465DF8047B704780B485B000AF86
:10514000786039607B685B68FB603B68FA685A602E
:10515000FB689A683B689A60FB689B683A685A608B
:10516000FB683A689A603B687A681A617B681B68DA
:105170005A1C7B681A6000BF1437BD465DF8047B7B
:10518000704780B485B000AF786039603B681B68B9
:10519000BB60BB68B3F1FF3F03D17B681B69FB6059
:1051A0000CE07B680833FB6002E0FB685B68FB6037
:1051B000FB685B681B68BA689A42F6D2FB685A685B
:1051C0003B685A603B685B683A689A603B68FA687B
:1051D0009A60FB683A685A603B687A681A617B6833
:1051E0001B685A1C7B681A6000BF1437BD465DF807
:1051F000047B704780B485B000AF78607B681B6922
:10520000FB607B685B687A6892689A607B689B68E1
:105210007A6852685A60FB685B687A689A4203D180
:105220007B689A68FB685A607B6800221A61FB6899
:105230001B685A1EFB681A60FB681B681846143707
:10524000BD465DF8047B704780B584B000AF7860E0
:1052500039607B68FB60FB68002B0BD14FF050037B
:1052600083F31188BFF36F8FBFF34F8FBB6000BF15
:1052700000BFFDE702F0B0F8FB681A68FB68DB6B63
:10528000F968096C01FB03F31A44FB689A60FB6838
:1052900000229A63FB681A68FB685A60FB681A6808
:1052A000FB68DB6B013BF968096C01FB03F31A44F3
:1052B000FB68DA60FB68FF2283F84420FB68FF226A
:1052C00083F845203B68002B14D1FB681B69002B39
:1052D0001AD0FB681033184601F02CF90346002B56
:1052E00012D00D4B4FF080521A60BFF34F8FBFF3B7
:1052F0006F8F09E0FB6810331846FFF7F1FEFB687B
:1053000024331846FFF7ECFE02F098F80123184604
:105310001037BD4680BD00BF04ED00E080B58EB003
:1053200002AFF860B9607A603B60FB68002B0BD17C
:105330004FF0500383F31188BFF36F8FBFF34F8F8C
:10534000BB6200BF00BFFDE73B68002B0BD14FF0F5
:10535000500383F31188BFF36F8FBFF34F8F7B62CE
:1053600000BF00BFFDE77B68002B02D0BB68002BAD
:1053700001D0012300E00023002B0BD14FF050039C
:1053800083F31188BFF36F8FBFF34F8F3B6200BF72
:1053900000BFFDE77B68002B02D1BB68002B01D169
:1053A000012300E00023002B0BD14FF0500383F3C7
:1053B0001188BFF36F8FBFF34F8FFB6100BF00BF3A
:1053C000FDE750237B617B69502B0BD04FF05003DE
:1053D00083F31188BFF36F8FBFF34F8FBB6100BFA3
:1053E00000BFFDE77B693B68FB62FB6A002B0DD0C9
:1053F000FB6A012283F8462097F83820FB6A009365
:1054000013467A68B968F86800F005F8FB6A184630
:105410003037BD4680BD80B584B000AFF860B9605C
:105420007A60FB70BB68002B03D1BB69BA691A6054
:1054300002E0BB697A681A60BB69FA68DA63BB6923
:10544000BA681A640121B869FFF7FEFEBB69FA78F1
:1054500083F84C2000BF1037BD4680BD80B58EB0AC
:1054600000AFF860B9607A603B6000237B63FB6843
:105470003B633B6B002B0BD14FF0500383F3118840
:10548000BFF36F8FBFF34F8FBB6200BF00BFFDE75D
:10549000BB68002B03D13B6B1B6C002B01D101239C
:1054A00000E00023002B0BD14FF0500383F3118851
:1054B000BFF36F8FBFF34F8F7B6200BF00BFFDE76D
:1054C0003B68022B03D13B6BDB6B012B01D101232A
:1054D00000E00023002B0BD14FF0500383F3118821
:1054E000BFF36F8FBFF34F8F3B6200BF00BFFDE77D
:1054F00001F008FA0346002B02D17B68002B01D192
:10550000012300E00023002B0BD14FF0500383F365
:105510001188BFF36F8FBFF34F8FFB6100BF00BFD8
:10552000FDE701F059FF3B6B9A6B3B6BDB6B9A42DB
:1055300002D33B68022B29D13A68B968386B00F076
:105540000FFAF8623B6B5B6A002B10D03B6B243385
:10555000184600F0EFFF0346002B13D03F4B4FF0EF
:1055600080521A60BFF34F8FBFF36F8F0AE0FB6A60
:10557000002B07D0394B4FF080521A60BFF34F8F8A
:10558000BFF36F8F01F05AFF012363E07B68002BAC
:1055900003D101F053FF00235CE07B6B002B06D1AD
:1055A00007F11403184601F051F801237B6301F061
:1055B00045FF00F087FD01F00FFF3B6B93F844308F
:1055C0005BB2B3F1FF3F03D13B6B002283F8442071
:1055D0003B6B93F845305BB2B3F1FF3F03D13B6BBC
:1055E000002283F8452001F029FF3A1D07F114033A
:1055F0001146184601F040F80346002B24D1386BC1
:1056000000F0A6FA0346002B18D03B6B10337A68E3
:105610001146184600F03CFF386B00F031FA00F0FC
:105620005FFD0346002B7FF47CAF0C4B4FF08052A4
:105630001A60BFF34F8FBFF36F8F72E7386B00F0C4
:105640001FFA00F04DFD6CE7386B00F019FA00F01E
:1056500047FD002318463837BD4680BD04ED00E005
:1056600080B590B000AFF860B9607A603B60FB68CD
:10567000BB63BB6B002B0BD14FF0500383F311883E
:10568000BFF36F8FBFF34F8FBB6200BF00BFFDE75B
:10569000BB68002B03D1BB6B1B6C002B01D101231A
:1056A00000E00023002B0BD14FF0500383F311884F
:1056B000BFF36F8FBFF34F8F7B6200BF00BFFDE76B
:1056C0003B68022B03D1BB6BDB6B012B01D10123A8
:1056D00000E00023002B0BD14FF0500383F311881F
:1056E000BFF36F8FBFF34F8F3B6200BF00BFFDE77B
:1056F00001F052FFEFF311824FF0500383F3118852
:10570000BFF36F8FBFF34F8FFA61BB61FB697B63A0
:10571000BB6B9A6BBB6BDB6B9A4202D33B68022B71
:105720002FD1BB6B93F8453087F83330BB6B9B6B45
:10573000FB623A68B968B86B00F012F997F9333038
:10574000B3F1FF3F12D1BB6B5B6A002B16D0BB6B72
:105750002433184600F0EEFE0346002B0ED07B6883
:10576000002B0BD07B6801221A6007E097F83330DA
:105770000133DBB25AB2BB6B83F845200123FB63D4
:1057800001E00023FB637B6B7B617B6983F3118802
:1057900000BFFB6B18464037BD4680BD80B58CB05E
:1057A00000AFF860B9607A600023FB62FB68BB62FF
:1057B000BB6A002B0BD14FF0500383F31188BFF36A
:1057C0006F8FBFF34F8F3B6200BF00BFFDE7BB6829
:1057D000002B03D1BB6A1B6C002B01D1012300E01D
:1057E0000023002B0BD14FF0500383F31188BFF33C
:1057F0006F8FBFF34F8FFB6100BF00BFFDE701F06C
:1058000081F80346002B02D17B68002B01D10123D4
:1058100000E00023002B0BD14FF0500383F31188DD
:10582000BFF36F8FBFF34F8FBB6100BF00BFFDE7BA
:1058300001F0D2FDBB6A9B6B7B627B6A002B1FD0A1
:10584000B968B86A00F0F6F87B6A5A1EBB6A9A63B8
:10585000BB6A1B69002B0FD0BB6A1033184600F0DF
:1058600069FE0346002B07D03C4B4FF080521A6074
:10587000BFF34F8FBFF36F8F01F0E0FD012369E0AD
:105880007B68002B03D101F0D9FD002362E0FB6AA5
:10589000002B06D107F11003184600F0D7FE0123B4
:1058A000FB6201F0CBFD00F00DFC01F095FDBB6A41
:1058B00093F844305BB2B3F1FF3F03D1BB6A0022DF
:1058C00083F84420BB6A93F845305BB2B3F1FF3FE5
:1058D00003D1BB6A002283F8452001F0AFFD3A1DD9
:1058E00007F110031146184600F0C6FE0346002BD0
:1058F00023D1B86A00F016F90346002B17D0BB6A13
:1059000024337A681146184600F0C2FDB86A00F0E8
:10591000B7F800F0E5FB0346002B89D10F4B4FF0A1
:1059200080521A60BFF34F8FBFF36F8F80E7B86A62
:1059300000F0A6F800F0D4FB7AE7B86A00F0A0F80F
:1059400000F0CEFBB86A00F0EDF80346002B3FF400
:105950006FAF002318463037BD4680BD04ED00E030
:1059600080B586B000AFF860B9607A6000237B61D3
:10597000FB689B6B3B61FB681B6C002B0DD1FB68CC
:105980001B68002B4DD1FB689B68184600F0D8FFC0
:105990007861FB6800229A6043E07B68002B19D194
:1059A000FB685868FB681B6C1A46B96811F031FB3C
:1059B000FB685A68FB681B6C1A44FB685A60FB68FA
:1059C0005A68FB689B689A422BD3FB681A68FB688D
:1059D0005A6026E0FB68D868FB681B6C1A46B968F9
:1059E00011F017FBFB68DA68FB681B6C5B421A441A
:1059F000FB68DA60FB68DA68FB681B689A4207D2CA
:105A0000FB689A68FB681B6C5B421A44FB68DA60AF
:105A10007B68022B05D13B69002B02D03B69013B1F
:105A20003B613B695A1CFB689A637B6918461837CF
:105A3000BD4680BD80B582B000AF786039607B68BC
:105A40001B6C002B18D07B68DA687B681B6C1A44CF
:105A50007B68DA607B68DA687B689B689A4203D36C
:105A60007B681A687B68DA607B68D9687B681B6C26
:105A70001A46386811F0CDFA00BF0837BD4680BD20
:105A800080B584B000AF786001F0A6FC7B6893F825
:105A90004530FB7311E07B685B6A002B12D07B689A
:105AA0002433184600F046FD0346002B01D000F0D9
:105AB00047FEFB7B013BDBB2FB7397F90F30002BFA
:105AC000E9DC00E000BF7B68FF2283F8452001F09D
:105AD000B5FC01F081FC7B6893F84430BB7311E0A6
